{
  "_format": "hh-sol-artifact-1",
  "contractName": "LandRegister",
  "sourceName": "contracts/LandRegistry.sol",
  "abi": [
    {
      "inputs": [
        {
          "internalType": "address",
          "name": "admin",
          "type": "address"
        }
      ],
      "stateMutability": "nonpayable",
      "type": "constructor"
    },
    {
      "inputs": [],
      "name": "AccessControlBadConfirmation",
      "type": "error"
    },
    {
      "inputs": [
        {
          "internalType": "address",
          "name": "account",
          "type": "address"
        },
        {
          "internalType": "bytes32",
          "name": "neededRole",
          "type": "bytes32"
        }
      ],
      "name": "AccessControlUnauthorizedAccount",
      "type": "error"
    },
    {
      "anonymous": false,
      "inputs": [
        {
          "indexed": false,
          "internalType": "string",
          "name": "kwId",
          "type": "string"
        },
        {
          "indexed": false,
          "internalType": "address",
          "name": "owner",
          "type": "address"
        },
        {
          "indexed": false,
          "internalType": "bytes32",
          "name": "dataHash",
          "type": "bytes32"
        }
      ],
      "name": "PropertyRegistered",
      "type": "event"
    },
    {
      "anonymous": false,
      "inputs": [
        {
          "indexed": false,
          "internalType": "string",
          "name": "kwId",
          "type": "string"
        },
        {
          "indexed": false,
          "internalType": "address",
          "name": "from",
          "type": "address"
        },
        {
          "indexed": false,
          "internalType": "address",
          "name": "to",
          "type": "address"
        }
      ],
      "name": "PropertyTransferred",
      "type": "event"
    },
    {
      "anonymous": false,
      "inputs": [
        {
          "indexed": false,
          "internalType": "string",
          "name": "kwId",
          "type": "string"
        },
        {
          "indexed": false,
          "internalType": "bytes32",
          "name": "newDataHash",
          "type": "bytes32"
        }
      ],
      "name": "PropertyUpdated",
      "type": "event"
    },
    {
      "anonymous": false,
      "inputs": [
        {
          "indexed": true,
          "internalType": "bytes32",
          "name": "role",
          "type": "bytes32"
        },
        {
          "indexed": true,
          "internalType": "bytes32",
          "name": "previousAdminRole",
          "type": "bytes32"
        },
        {
          "indexed": true,
          "internalType": "bytes32",
          "name": "newAdminRole",
          "type": "bytes32"
        }
      ],
      "name": "RoleAdminChanged",
      "type": "event"
    },
    {
      "anonymous": false,
      "inputs": [
        {
          "indexed": true,
          "internalType": "bytes32",
          "name": "role",
          "type": "bytes32"
        },
        {
          "indexed": true,
          "internalType": "address",
          "name": "account",
          "type": "address"
        },
        {
          "indexed": true,
          "internalType": "address",
          "name": "sender",
          "type": "address"
        }
      ],
      "name": "RoleGranted",
      "type": "event"
    },
    {
      "anonymous": false,
      "inputs": [
        {
          "indexed": true,
          "internalType": "bytes32",
          "name": "role",
          "type": "bytes32"
        },
        {
          "indexed": true,
          "internalType": "address",
          "name": "account",
          "type": "address"
        },
        {
          "indexed": true,
          "internalType": "address",
          "name": "sender",
          "type": "address"
        }
      ],
      "name": "RoleRevoked",
      "type": "event"
    },
    {
      "inputs": [],
      "name": "DEFAULT_ADMIN_ROLE",
      "outputs": [
        {
          "internalType": "bytes32",
          "name": "",
          "type": "bytes32"
        }
      ],
      "stateMutability": "view",
      "type": "function"
    },
    {
      "inputs": [],
      "name": "NOTARY_ROLE",
      "outputs": [
        {
          "internalType": "bytes32",
          "name": "",
          "type": "bytes32"
        }
      ],
      "stateMutability": "view",
      "type": "function"
    },
    {
      "inputs": [
        {
          "internalType": "address",
          "name": "notary",
          "type": "address"
        }
      ],
      "name": "addNotary",
      "outputs": [],
      "stateMutability": "nonpayable",
      "type": "function"
    },
    {
      "inputs": [
        {
          "internalType": "string",
          "name": "kwId",
          "type": "string"
        }
      ],
      "name": "getProperty",
      "outputs": [
        {
          "internalType": "address",
          "name": "owner",
          "type": "address"
        },
        {
          "internalType": "bytes32",
          "name": "dataHash",
          "type": "bytes32"
        }
      ],
      "stateMutability": "view",
      "type": "function"
    },
    {
      "inputs": [
        {
          "internalType": "bytes32",
          "name": "role",
          "type": "bytes32"
        }
      ],
      "name": "getRoleAdmin",
      "outputs": [
        {
          "internalType": "bytes32",
          "name": "",
          "type": "bytes32"
        }
      ],
      "stateMutability": "view",
      "type": "function"
    },
    {
      "inputs": [
        {
          "internalType": "bytes32",
          "name": "role",
          "type": "bytes32"
        },
        {
          "internalType": "address",
          "name": "account",
          "type": "address"
        }
      ],
      "name": "grantRole",
      "outputs": [],
      "stateMutability": "nonpayable",
      "type": "function"
    },
    {
      "inputs": [
        {
          "internalType": "bytes32",
          "name": "role",
          "type": "bytes32"
        },
        {
          "internalType": "address",
          "name": "account",
          "type": "address"
        }
      ],
      "name": "hasRole",
      "outputs": [
        {
          "internalType": "bool",
          "name": "",
          "type": "bool"
        }
      ],
      "stateMutability": "view",
      "type": "function"
    },
    {
      "inputs": [
        {
          "internalType": "string",
          "name": "kwId",
          "type": "string"
        },
        {
          "internalType": "bytes32",
          "name": "dataHash",
          "type": "bytes32"
        },
        {
          "internalType": "address",
          "name": "owner",
          "type": "address"
        }
      ],
      "name": "registerProperty",
      "outputs": [],
      "stateMutability": "nonpayable",
      "type": "function"
    },
    {
      "inputs": [
        {
          "internalType": "bytes32",
          "name": "role",
          "type": "bytes32"
        },
        {
          "internalType": "address",
          "name": "callerConfirmation",
          "type": "address"
        }
      ],
      "name": "renounceRole",
      "outputs": [],
      "stateMutability": "nonpayable",
      "type": "function"
    },
    {
      "inputs": [
        {
          "internalType": "bytes32",
          "name": "role",
          "type": "bytes32"
        },
        {
          "internalType": "address",
          "name": "account",
          "type": "address"
        }
      ],
      "name": "revokeRole",
      "outputs": [],
      "stateMutability": "nonpayable",
      "type": "function"
    },
    {
      "inputs": [
        {
          "internalType": "bytes4",
          "name": "interfaceId",
          "type": "bytes4"
        }
      ],
      "name": "supportsInterface",
      "outputs": [
        {
          "internalType": "bool",
          "name": "",
          "type": "bool"
        }
      ],
      "stateMutability": "view",
      "type": "function"
    },
    {
      "inputs": [
        {
          "internalType": "string",
          "name": "kwId",
          "type": "string"
        },
        {
          "internalType": "address",
          "name": "newOwner",
          "type": "address"
        }
      ],
      "name": "transferProperty",
      "outputs": [],
      "stateMutability": "nonpayable",
      "type": "function"
    },
    {
      "inputs": [
        {
          "internalType": "string",
          "name": "kwId",
          "type": "string"
        },
        {
          "internalType": "bytes32",
          "name": "newDataHash",
          "type": "bytes32"
        }
      ],
      "name": "updatePropertyData",
      "outputs": [],
      "stateMutability": "nonpayable",
      "type": "function"
    }
  ],
  "bytecode": "0x60806040523480156200001157600080fd5b50604051620016d6380380620016d6833981810160405281019062000037919062000233565b6200004c6000801b826200005460201b60201c565b505062000265565b60006200006883836200015760201b60201c565b6200014c57600160008085815260200190815260200160002060000160008473ffffffffffffffffffffffffffffffffffffffff1673ffffffffffffffffffffffffffffffffffffffff16815260200190815260200160002060006101000a81548160ff021916908315150217905550620000e8620001c160201b60201c565b73ffffffffffffffffffffffffffffffffffffffff168273ffffffffffffffffffffffffffffffffffffffff16847f2f8788117e7eff1d82e926ec794901d17c78024a50270940304540a733656f0d60405160405180910390a46001905062000151565b600090505b92915050565b600080600084815260200190815260200160002060000160008373ffffffffffffffffffffffffffffffffffffffff1673ffffffffffffffffffffffffffffffffffffffff16815260200190815260200160002060009054906101000a900460ff16905092915050565b600033905090565b600080fd5b600073ffffffffffffffffffffffffffffffffffffffff82169050919050565b6000620001fb82620001ce565b9050919050565b6200020d81620001ee565b81146200021957600080fd5b50565b6000815190506200022d8162000202565b92915050565b6000602082840312156200024c576200024b620001c9565b5b60006200025c848285016200021c565b91505092915050565b61146180620002756000396000f3fe608060405234801561001057600080fd5b50600436106100cf5760003560e01c806356b31f5c1161008c578063ab331a3411610066578063ab331a341461020e578063c48b0baa1461023f578063d547741f1461025d578063f64f7fb214610279576100cf565b806356b31f5c146101a457806391d14854146101c0578063a217fddf146101f0576100cf565b806301ffc9a7146100d45780630588565f14610104578063248a9ca3146101205780632f2ff15d1461015057806336568abe1461016c5780634ff26c6914610188575b600080fd5b6100ee60048036038101906100e99190610d2c565b610295565b6040516100fb9190610d74565b60405180910390f35b61011e60048036038101906101199190610ded565b61030f565b005b61013a60048036038101906101359190610e50565b61034b565b6040516101479190610e8c565b60405180910390f35b61016a60048036038101906101659190610ea7565b61036a565b005b61018660048036038101906101819190610ea7565b61038c565b005b6101a2600480360381019061019d919061102d565b610407565b005b6101be60048036038101906101b99190611089565b610503565b005b6101da60048036038101906101d59190610ea7565b6106a3565b6040516101e79190610d74565b60405180910390f35b6101f861070d565b6040516102059190610e8c565b60405180910390f35b610228600480360381019061022391906110f8565b610714565b604051610236929190611150565b60405180910390f35b610247610841565b6040516102549190610e8c565b60405180910390f35b61027760048036038101906102729190610ea7565b610865565b005b610293600480360381019061028e9190611179565b610887565b005b60007f7965db0b000000000000000000000000000000000000000000000000000000007bffffffffffffffffffffffffffffffffffffffffffffffffffffffff1916827bffffffffffffffffffffffffffffffffffffffffffffffffffffffff19161480610308575061030782610a06565b5b9050919050565b6000801b61031c81610a70565b6103467f014df5ee2861d7f34562399ffa112fc59b51f810d2b875c3609ba0c31ac873d083610a84565b505050565b6000806000838152602001908152602001600020600101549050919050565b6103738261034b565b61037c81610a70565b6103868383610a84565b50505050565b610394610b75565b73ffffffffffffffffffffffffffffffffffffffff168173ffffffffffffffffffffffffffffffffffffffff16146103f8576040517f6697b23200000000000000000000000000000000000000000000000000000000815260040160405180910390fd5b6104028282610b7d565b505050565b7f014df5ee2861d7f34562399ffa112fc59b51f810d2b875c3609ba0c31ac873d061043181610a70565b6001836040516104419190611246565b908152602001604051809103902060020160009054906101000a900460ff1661049f576040517f08c379a0000000000000000000000000000000000000000000000000000000008152600401610496906112ba565b60405180910390fd5b816001846040516104b09190611246565b9081526020016040518091039020600101819055507ffe967c769d7f0529cbc68642ad7749fa30d424d480a52f1e31227ec10c3642ba83836040516104f6929190611313565b60405180910390a1505050565b7f014df5ee2861d7f34562399ffa112fc59b51f810d2b875c3609ba0c31ac873d061052d81610a70565b60018460405161053d9190611246565b908152602001604051809103902060020160009054906101000a900460ff161561059c576040517f08c379a00000000000000000000000000000000000000000000000000000000081526004016105939061138f565b60405180910390fd5b60405180606001604052808373ffffffffffffffffffffffffffffffffffffffff168152602001848152602001600115158152506001856040516105e09190611246565b908152602001604051809103902060008201518160000160006101000a81548173ffffffffffffffffffffffffffffffffffffffff021916908373ffffffffffffffffffffffffffffffffffffffff1602179055506020820151816001015560408201518160020160006101000a81548160ff0219169083151502179055509050507f8c7524bc6719bfece56e9385016429a661ed788b1de89c1ef4c6b790b1c1fc6d848385604051610695939291906113af565b60405180910390a150505050565b600080600084815260200190815260200160002060000160008373ffffffffffffffffffffffffffffffffffffffff1673ffffffffffffffffffffffffffffffffffffffff16815260200190815260200160002060009054906101000a900460ff16905092915050565b6000801b81565b6000806001836040516107279190611246565b908152602001604051809103902060020160009054906101000a900460ff16610785576040517f08c379a000000000000000000000000000000000000000000000000000000000815260040161077c906112ba565b60405180910390fd5b60006001846040516107979190611246565b90815260200160405180910390206040518060600160405290816000820160009054906101000a900473ffffffffffffffffffffffffffffffffffffffff1673ffffffffffffffffffffffffffffffffffffffff1673ffffffffffffffffffffffffffffffffffffffff168152602001600182015481526020016002820160009054906101000a900460ff1615151515815250509050806000015181602001519250925050915091565b7f014df5ee2861d7f34562399ffa112fc59b51f810d2b875c3609ba0c31ac873d081565b61086e8261034b565b61087781610a70565b6108818383610b7d565b50505050565b7f014df5ee2861d7f34562399ffa112fc59b51f810d2b875c3609ba0c31ac873d06108b181610a70565b6001836040516108c19190611246565b908152602001604051809103902060020160009054906101000a900460ff1661091f576040517f08c379a0000000000000000000000000000000000000000000000000000000008152600401610916906112ba565b60405180910390fd5b60006001846040516109319190611246565b908152602001604051809103902060000160009054906101000a900473ffffffffffffffffffffffffffffffffffffffff169050826001856040516109769190611246565b908152602001604051809103902060000160006101000a81548173ffffffffffffffffffffffffffffffffffffffff021916908373ffffffffffffffffffffffffffffffffffffffff1602179055507fc97abf666e272fea65687f234e376b717fd130c2a8b0fc847228e7aa0b57e9bd8482856040516109f8939291906113ed565b60405180910390a150505050565b60007f01ffc9a7000000000000000000000000000000000000000000000000000000007bffffffffffffffffffffffffffffffffffffffffffffffffffffffff1916827bffffffffffffffffffffffffffffffffffffffffffffffffffffffff1916149050919050565b610a8181610a7c610b75565b610c6f565b50565b6000610a9083836106a3565b610b6a57600160008085815260200190815260200160002060000160008473ffffffffffffffffffffffffffffffffffffffff1673ffffffffffffffffffffffffffffffffffffffff16815260200190815260200160002060006101000a81548160ff021916908315150217905550610b07610b75565b73ffffffffffffffffffffffffffffffffffffffff168273ffffffffffffffffffffffffffffffffffffffff16847f2f8788117e7eff1d82e926ec794901d17c78024a50270940304540a733656f0d60405160405180910390a460019050610b6f565b600090505b92915050565b600033905090565b6000610b8983836106a3565b15610c6457600080600085815260200190815260200160002060000160008473ffffffffffffffffffffffffffffffffffffffff1673ffffffffffffffffffffffffffffffffffffffff16815260200190815260200160002060006101000a81548160ff021916908315150217905550610c01610b75565b73ffffffffffffffffffffffffffffffffffffffff168273ffffffffffffffffffffffffffffffffffffffff16847ff6391f5c32d9c69d2a47ea670b442974b53935d1edc7fd64eb21e047a839171b60405160405180910390a460019050610c69565b600090505b92915050565b610c7982826106a3565b610cbc5780826040517fe2517d3f000000000000000000000000000000000000000000000000000000008152600401610cb3929190611150565b60405180910390fd5b5050565b6000604051905090565b600080fd5b600080fd5b60007fffffffff0000000000000000000000000000000000000000000000000000000082169050919050565b610d0981610cd4565b8114610d1457600080fd5b50565b600081359050610d2681610d00565b92915050565b600060208284031215610d4257610d41610cca565b5b6000610d5084828501610d17565b91505092915050565b60008115159050919050565b610d6e81610d59565b82525050565b6000602082019050610d896000830184610d65565b92915050565b600073ffffffffffffffffffffffffffffffffffffffff82169050919050565b6000610dba82610d8f565b9050919050565b610dca81610daf565b8114610dd557600080fd5b50565b600081359050610de781610dc1565b92915050565b600060208284031215610e0357610e02610cca565b5b6000610e1184828501610dd8565b91505092915050565b6000819050919050565b610e2d81610e1a565b8114610e3857600080fd5b50565b600081359050610e4a81610e24565b92915050565b600060208284031215610e6657610e65610cca565b5b6000610e7484828501610e3b565b91505092915050565b610e8681610e1a565b82525050565b6000602082019050610ea16000830184610e7d565b92915050565b60008060408385031215610ebe57610ebd610cca565b5b6000610ecc85828601610e3b565b9250506020610edd85828601610dd8565b9150509250929050565b600080fd5b600080fd5b6000601f19601f8301169050919050565b7f4e487b7100000000000000000000000000000000000000000000000000000000600052604160045260246000fd5b610f3a82610ef1565b810181811067ffffffffffffffff82111715610f5957610f58610f02565b5b80604052505050565b6000610f6c610cc0565b9050610f788282610f31565b919050565b600067ffffffffffffffff821115610f9857610f97610f02565b5b610fa182610ef1565b9050602081019050919050565b82818337600083830152505050565b6000610fd0610fcb84610f7d565b610f62565b905082815260208101848484011115610fec57610feb610eec565b5b610ff7848285610fae565b509392505050565b600082601f83011261101457611013610ee7565b5b8135611024848260208601610fbd565b91505092915050565b6000806040838503121561104457611043610cca565b5b600083013567ffffffffffffffff81111561106257611061610ccf565b5b61106e85828601610fff565b925050602061107f85828601610e3b565b9150509250929050565b6000806000606084860312156110a2576110a1610cca565b5b600084013567ffffffffffffffff8111156110c0576110bf610ccf565b5b6110cc86828701610fff565b93505060206110dd86828701610e3b565b92505060406110ee86828701610dd8565b9150509250925092565b60006020828403121561110e5761110d610cca565b5b600082013567ffffffffffffffff81111561112c5761112b610ccf565b5b61113884828501610fff565b91505092915050565b61114a81610daf565b82525050565b60006040820190506111656000830185611141565b6111726020830184610e7d565b9392505050565b600080604083850312156111905761118f610cca565b5b600083013567ffffffffffffffff8111156111ae576111ad610ccf565b5b6111ba85828601610fff565b92505060206111cb85828601610dd8565b9150509250929050565b600081519050919050565b600081905092915050565b60005b838110156112095780820151818401526020810190506111ee565b60008484015250505050565b6000611220826111d5565b61122a81856111e0565b935061123a8185602086016111eb565b80840191505092915050565b60006112528284611215565b915081905092915050565b600082825260208201905092915050565b7f4e6f7420666f756e640000000000000000000000000000000000000000000000600082015250565b60006112a460098361125d565b91506112af8261126e565b602082019050919050565b600060208201905081810360008301526112d381611297565b9050919050565b60006112e5826111d5565b6112ef818561125d565b93506112ff8185602086016111eb565b61130881610ef1565b840191505092915050565b6000604082019050818103600083015261132d81856112da565b905061133c6020830184610e7d565b9392505050565b7f50726f7065727479206578697374730000000000000000000000000000000000600082015250565b6000611379600f8361125d565b915061138482611343565b602082019050919050565b600060208201905081810360008301526113a88161136c565b9050919050565b600060608201905081810360008301526113c981866112da565b90506113d86020830185611141565b6113e56040830184610e7d565b949350505050565b6000606082019050818103600083015261140781866112da565b90506114166020830185611141565b6114236040830184611141565b94935050505056fea26469706673582212204ed62b420db535d069057013f61fce4694e0b21124812c84debda5f93bd829f964736f6c63430008140033",
  "linkReferences": {},
  "deployedLinkReferences": {}
}